{
  "contractName": "Certificate",
  "abi": [
    {
      "anonymous": false,
      "inputs": [
        {
          "indexed": true,
          "internalType": "uint256",
          "name": "id",
          "type": "uint256"
        },
        {
          "indexed": true,
          "internalType": "address",
          "name": "issuer",
          "type": "address"
        },
        {
          "indexed": false,
          "internalType": "bytes32",
          "name": "fileHash",
          "type": "bytes32"
        },
        {
          "indexed": false,
          "internalType": "string",
          "name": "ipfsCid",
          "type": "string"
        }
      ],
      "name": "CertificateIssued",
      "type": "event"
    },
    {
      "anonymous": false,
      "inputs": [
        {
          "indexed": true,
          "internalType": "uint256",
          "name": "id",
          "type": "uint256"
        },
        {
          "indexed": true,
          "internalType": "address",
          "name": "issuer",
          "type": "address"
        }
      ],
      "name": "CertificateRevoked",
      "type": "event"
    },
    {
      "inputs": [],
      "name": "certCount",
      "outputs": [
        {
          "internalType": "uint256",
          "name": "",
          "type": "uint256"
        }
      ],
      "stateMutability": "view",
      "type": "function",
      "constant": true
    },
    {
      "inputs": [
        {
          "internalType": "string",
          "name": "_name",
          "type": "string"
        },
        {
          "internalType": "string",
          "name": "_studentId",
          "type": "string"
        },
        {
          "internalType": "string",
          "name": "_course",
          "type": "string"
        },
        {
          "internalType": "string",
          "name": "_certNo",
          "type": "string"
        },
        {
          "internalType": "string",
          "name": "_ipfsCid",
          "type": "string"
        },
        {
          "internalType": "bytes32",
          "name": "_fileHash",
          "type": "bytes32"
        }
      ],
      "name": "issueCertificate",
      "outputs": [
        {
          "internalType": "uint256",
          "name": "",
          "type": "uint256"
        }
      ],
      "stateMutability": "nonpayable",
      "type": "function"
    },
    {
      "inputs": [
        {
          "internalType": "uint256",
          "name": "_id",
          "type": "uint256"
        }
      ],
      "name": "getCertificate",
      "outputs": [
        {
          "components": [
            {
              "internalType": "uint256",
              "name": "id",
              "type": "uint256"
            },
            {
              "internalType": "string",
              "name": "studentName",
              "type": "string"
            },
            {
              "internalType": "string",
              "name": "studentId",
              "type": "string"
            },
            {
              "internalType": "string",
              "name": "course",
              "type": "string"
            },
            {
              "internalType": "string",
              "name": "certNo",
              "type": "string"
            },
            {
              "internalType": "string",
              "name": "ipfsCid",
              "type": "string"
            },
            {
              "internalType": "bytes32",
              "name": "fileHash",
              "type": "bytes32"
            },
            {
              "internalType": "address",
              "name": "issuer",
              "type": "address"
            },
            {
              "internalType": "uint256",
              "name": "timestamp",
              "type": "uint256"
            },
            {
              "internalType": "bool",
              "name": "revoked",
              "type": "bool"
            }
          ],
          "internalType": "struct Certificate.Cert",
          "name": "",
          "type": "tuple"
        }
      ],
      "stateMutability": "view",
      "type": "function",
      "constant": true
    },
    {
      "inputs": [
        {
          "internalType": "uint256",
          "name": "_id",
          "type": "uint256"
        }
      ],
      "name": "revokeCertificate",
      "outputs": [],
      "stateMutability": "nonpayable",
      "type": "function"
    },
    {
      "inputs": [
        {
          "internalType": "uint256",
          "name": "_id",
          "type": "uint256"
        },
        {
          "internalType": "bytes32",
          "name": "_hash",
          "type": "bytes32"
        }
      ],
      "name": "verifyFileHash",
      "outputs": [
        {
          "internalType": "bool",
          "name": "",
          "type": "bool"
        }
      ],
      "stateMutability": "view",
      "type": "function",
      "constant": true
    }
  ],
  "bytecode": "0x60806040526000805534801561001457600080fd5b50611598806100246000396000f3fe608060405234801561001057600080fd5b50600436106100575760003560e01c806306f5497e1461005c5780633a2257691461007857806351640fee146100a8578063d4e207a2146100d8578063f5d0f2a2146100f6575b600080fd5b61007660048036038101906100719190610d3b565b610126565b005b610092600480360381019061008d9190610d64565b6102d7565b60405161009f9190611171565b60405180910390f35b6100c260048036038101906100bd9190610d3b565b61034a565b6040516100cf91906112bc565b60405180910390f35b6100e0610732565b6040516100ed91906112de565b60405180910390f35b610110600480360381019061010b9190610c3a565b610738565b60405161011d91906112de565b60405180910390f35b60008111801561013857506000548111155b610177576040517f08c379a000000000000000000000000000000000000000000000000000000000815260040161016e9061123c565b60405180910390fd5b60006001600083815260200190815260200160002090508060070160009054906101000a900473ffffffffffffffffffffffffffffffffffffffff1673ffffffffffffffffffffffffffffffffffffffff163373ffffffffffffffffffffffffffffffffffffffff1614610220576040517f08c379a00000000000000000000000000000000000000000000000000000000081526004016102179061127c565b60405180910390fd5b8060090160009054906101000a900460ff1615610272576040517f08c379a00000000000000000000000000000000000000000000000000000000081526004016102699061129c565b60405180910390fd5b60018160090160006101000a81548160ff0219169083151502179055503373ffffffffffffffffffffffffffffffffffffffff16827f325c62e70cfaa61cf0709d9607ea9d8451b235297c4b47c65ff6a6449c9faca460405160405180910390a35050565b600080831180156102ea57506000548311155b610329576040517f08c379a00000000000000000000000000000000000000000000000000000000081526004016103209061123c565b60405180910390fd5b81600160008581526020019081526020016000206006015414905092915050565b610352610a97565b60008211801561036457506000548211155b6103a3576040517f08c379a000000000000000000000000000000000000000000000000000000000815260040161039a9061123c565b60405180910390fd5b6001600083815260200190815260200160002060405180610140016040529081600082015481526020016001820180546103dc9061141b565b80601f01602080910402602001604051908101604052809291908181526020018280546104089061141b565b80156104555780601f1061042a57610100808354040283529160200191610455565b820191906000526020600020905b81548152906001019060200180831161043857829003601f168201915b5050505050815260200160028201805461046e9061141b565b80601f016020809104026020016040519081016040528092919081815260200182805461049a9061141b565b80156104e75780601f106104bc576101008083540402835291602001916104e7565b820191906000526020600020905b8154815290600101906020018083116104ca57829003601f168201915b505050505081526020016003820180546105009061141b565b80601f016020809104026020016040519081016040528092919081815260200182805461052c9061141b565b80156105795780601f1061054e57610100808354040283529160200191610579565b820191906000526020600020905b81548152906001019060200180831161055c57829003601f168201915b505050505081526020016004820180546105929061141b565b80601f01602080910402602001604051908101604052809291908181526020018280546105be9061141b565b801561060b5780601f106105e05761010080835404028352916020019161060b565b820191906000526020600020905b8154815290600101906020018083116105ee57829003601f168201915b505050505081526020016005820180546106249061141b565b80601f01602080910402602001604051908101604052809291908181526020018280546106509061141b565b801561069d5780601f106106725761010080835404028352916020019161069d565b820191906000526020600020905b81548152906001019060200180831161068057829003601f168201915b50505050508152602001600682015481526020016007820160009054906101000a900473ffffffffffffffffffffffffffffffffffffffff1673ffffffffffffffffffffffffffffffffffffffff1673ffffffffffffffffffffffffffffffffffffffff168152602001600882015481526020016009820160009054906101000a900460ff1615151515815250509050919050565b60005481565b60008087511161077d576040517f08c379a0000000000000000000000000000000000000000000000000000000008152600401610774906111bc565b60405180910390fd5b60008651116107c1576040517f08c379a00000000000000000000000000000000000000000000000000000000081526004016107b89061125c565b60405180910390fd5b6000855111610805576040517f08c379a00000000000000000000000000000000000000000000000000000000081526004016107fc9061121c565b60405180910390fd5b6000835111610849576040517f08c379a0000000000000000000000000000000000000000000000000000000008152600401610840906111fc565b60405180910390fd5b6000801b82141561088f576040517f08c379a0000000000000000000000000000000000000000000000000000000008152600401610886906111dc565b60405180910390fd5b6000808154809291906108a19061144d565b919050555060405180610140016040528060005481526020018881526020018781526020018681526020018581526020018481526020018381526020013373ffffffffffffffffffffffffffffffffffffffff168152602001428152602001600015158152506001600080548152602001908152602001600020600082015181600001556020820151816001019080519060200190610941929190610b05565b50604082015181600201908051906020019061095e929190610b05565b50606082015181600301908051906020019061097b929190610b05565b506080820151816004019080519060200190610998929190610b05565b5060a08201518160050190805190602001906109b5929190610b05565b5060c0820151816006015560e08201518160070160006101000a81548173ffffffffffffffffffffffffffffffffffffffff021916908373ffffffffffffffffffffffffffffffffffffffff16021790555061010082015181600801556101208201518160090160006101000a81548160ff0219169083151502179055509050503373ffffffffffffffffffffffffffffffffffffffff166000547ecce6d5df4ff30d7e1f2aa059e27078c129eb60c013476d4c33f50c96dbde1e8486604051610a8092919061118c565b60405180910390a360005490509695505050505050565b60405180610140016040528060008152602001606081526020016060815260200160608152602001606081526020016060815260200160008019168152602001600073ffffffffffffffffffffffffffffffffffffffff168152602001600081526020016000151581525090565b828054610b119061141b565b90600052602060002090601f016020900481019282610b335760008555610b7a565b82601f10610b4c57805160ff1916838001178555610b7a565b82800160010185558215610b7a579182015b82811115610b79578251825591602001919060010190610b5e565b5b509050610b879190610b8b565b5090565b5b80821115610ba4576000816000905550600101610b8c565b5090565b6000610bbb610bb68461132a565b6112f9565b905082815260208101848484011115610bd357600080fd5b610bde8482856113d9565b509392505050565b600081359050610bf581611534565b92915050565b600082601f830112610c0c57600080fd5b8135610c1c848260208601610ba8565b91505092915050565b600081359050610c348161154b565b92915050565b60008060008060008060c08789031215610c5357600080fd5b600087013567ffffffffffffffff811115610c6d57600080fd5b610c7989828a01610bfb565b965050602087013567ffffffffffffffff811115610c9657600080fd5b610ca289828a01610bfb565b955050604087013567ffffffffffffffff811115610cbf57600080fd5b610ccb89828a01610bfb565b945050606087013567ffffffffffffffff811115610ce857600080fd5b610cf489828a01610bfb565b935050608087013567ffffffffffffffff811115610d1157600080fd5b610d1d89828a01610bfb565b92505060a0610d2e89828a01610be6565b9150509295509295509295565b600060208284031215610d4d57600080fd5b6000610d5b84828501610c25565b91505092915050565b60008060408385031215610d7757600080fd5b6000610d8585828601610c25565b9250506020610d9685828601610be6565b9150509250929050565b610da981611387565b82525050565b610db881611399565b82525050565b610dc781611399565b82525050565b610dd6816113a5565b82525050565b610de5816113a5565b82525050565b6000610df68261135a565b610e008185611365565b9350610e108185602086016113e8565b610e1981611523565b840191505092915050565b6000610e2f8261135a565b610e398185611376565b9350610e498185602086016113e8565b610e5281611523565b840191505092915050565b6000610e6a600d83611376565b91507f4e616d65207265717569726564000000000000000000000000000000000000006000830152602082019050919050565b6000610eaa601283611376565b91507f46696c65206861736820726571756972656400000000000000000000000000006000830152602082019050919050565b6000610eea601183611376565b91507f49504653204349442072657175697265640000000000000000000000000000006000830152602082019050919050565b6000610f2a600f83611376565b91507f436f7572736520726571756972656400000000000000000000000000000000006000830152602082019050919050565b6000610f6a601a83611376565b91507f436572746966696361746520646f6573206e6f742065786973740000000000006000830152602082019050919050565b6000610faa601383611376565b91507f53747564656e74204944207265717569726564000000000000000000000000006000830152602082019050919050565b6000610fea601683611376565b91507f4f6e6c79206973737565722063616e207265766f6b65000000000000000000006000830152602082019050919050565b600061102a600f83611376565b91507f416c7265616479207265766f6b656400000000000000000000000000000000006000830152602082019050919050565b6000610140830160008301516110766000860182611153565b506020830151848203602086015261108e8282610deb565b915050604083015184820360408601526110a88282610deb565b915050606083015184820360608601526110c28282610deb565b915050608083015184820360808601526110dc8282610deb565b91505060a083015184820360a08601526110f68282610deb565b91505060c083015161110b60c0860182610dcd565b5060e083015161111e60e0860182610da0565b50610100830151611133610100860182611153565b50610120830151611148610120860182610daf565b508091505092915050565b61115c816113cf565b82525050565b61116b816113cf565b82525050565b60006020820190506111866000830184610dbe565b92915050565b60006040820190506111a16000830185610ddc565b81810360208301526111b38184610e24565b90509392505050565b600060208201905081810360008301526111d581610e5d565b9050919050565b600060208201905081810360008301526111f581610e9d565b9050919050565b6000602082019050818103600083015261121581610edd565b9050919050565b6000602082019050818103600083015261123581610f1d565b9050919050565b6000602082019050818103600083015261125581610f5d565b9050919050565b6000602082019050818103600083015261127581610f9d565b9050919050565b6000602082019050818103600083015261129581610fdd565b9050919050565b600060208201905081810360008301526112b58161101d565b9050919050565b600060208201905081810360008301526112d6818461105d565b905092915050565b60006020820190506112f36000830184611162565b92915050565b6000604051905081810181811067ffffffffffffffff821117156113205761131f6114f4565b5b8060405250919050565b600067ffffffffffffffff821115611345576113446114f4565b5b601f19601f8301169050602081019050919050565b600081519050919050565b600082825260208201905092915050565b600082825260208201905092915050565b6000611392826113af565b9050919050565b60008115159050919050565b6000819050919050565b600073ffffffffffffffffffffffffffffffffffffffff82169050919050565b6000819050919050565b82818337600083830152505050565b60005b838110156114065780820151818401526020810190506113eb565b83811115611415576000848401525b50505050565b6000600282049050600182168061143357607f821691505b60208210811415611447576114466114c5565b5b50919050565b6000611458826113cf565b91507fffffffffffffffffffffffffffffffffffffffffffffffffffffffffffffffff82141561148b5761148a611496565b5b600182019050919050565b7f4e487b7100000000000000000000000000000000000000000000000000000000600052601160045260246000fd5b7f4e487b7100000000000000000000000000000000000000000000000000000000600052602260045260246000fd5b7f4e487b7100000000000000000000000000000000000000000000000000000000600052604160045260246000fd5b6000601f19601f8301169050919050565b61153d816113a5565b811461154857600080fd5b50565b611554816113cf565b811461155f57600080fd5b5056fea2646970667358221220e4805f40bd889c65cf98033fd2e490e3b48c4a493f9635277485bc3be00b924764736f6c63430008000033",
  "immutableReferences": {},
  "source": "// SPDX-License-Identifier: MIT\npragma solidity ^0.8.0;\n\ncontract Certificate {\n    uint public certCount = 0;\n\n    struct Cert {\n        uint id;\n        string studentName;\n        string studentId;\n        string course;\n\n        // Extracted from PDF (optional, but good)\n        string certNo;\n\n        // IPFS CID of the uploaded PDF\n        string ipfsCid;\n\n        // SHA256 hash of the original uploaded PDF bytes\n        bytes32 fileHash;\n\n        // Issuer wallet address (the wallet that issued on-chain)\n        address issuer;\n\n        // Issue timestamp\n        uint timestamp;\n\n        // Revocation status\n        bool revoked;\n    }\n\n    mapping(uint => Cert) private certificates;\n\n    event CertificateIssued(\n        uint indexed id,\n        address indexed issuer,\n        bytes32 fileHash,\n        string ipfsCid\n    );\n\n    event CertificateRevoked(uint indexed id, address indexed issuer);\n\n    function issueCertificate(\n        string memory _name,\n        string memory _studentId,\n        string memory _course,\n        string memory _certNo,\n        string memory _ipfsCid,\n        bytes32 _fileHash\n    ) public returns (uint) {\n        require(bytes(_name).length > 0, \"Name required\");\n        require(bytes(_studentId).length > 0, \"Student ID required\");\n        require(bytes(_course).length > 0, \"Course required\");\n        require(bytes(_ipfsCid).length > 0, \"IPFS CID required\");\n        require(_fileHash != bytes32(0), \"File hash required\");\n\n        certCount++;\n\n        certificates[certCount] = Cert(\n            certCount,\n            _name,\n            _studentId,\n            _course,\n            _certNo,\n            _ipfsCid,\n            _fileHash,\n            msg.sender,\n            block.timestamp,\n            false\n        );\n\n        emit CertificateIssued(certCount, msg.sender, _fileHash, _ipfsCid);\n        return certCount;\n    }\n\n    function getCertificate(uint _id) public view returns (Cert memory) {\n        require(_id > 0 && _id <= certCount, \"Certificate does not exist\");\n        return certificates[_id];\n    }\n\n    function revokeCertificate(uint _id) public {\n        require(_id > 0 && _id <= certCount, \"Certificate does not exist\");\n\n        Cert storage c = certificates[_id];\n        require(msg.sender == c.issuer, \"Only issuer can revoke\");\n        require(!c.revoked, \"Already revoked\");\n\n        c.revoked = true;\n        emit CertificateRevoked(_id, msg.sender);\n    }\n\n    function verifyFileHash(uint _id, bytes32 _hash) public view returns (bool) {\n        require(_id > 0 && _id <= certCount, \"Certificate does not exist\");\n        return certificates[_id].fileHash == _hash;\n    }\n}",
  "sourcePath": "C:\\Users\\Anshika Jain\\Desktop\\student-certificate-blockchain-main\\contracts\\Certificate.sol",
  "compiler": {
    "name": "solc",
    "version": "0.8.0+commit.c7dfd78e.Emscripten.clang"
  },
  "schemaVersion": "3.4.16",
  "updatedAt": "2026-03-02T09:17:26.246Z",
  "networkType": "ethereum",
  "devdoc": {
    "kind": "dev",
    "methods": {},
    "version": 1
  },
  "userdoc": {
    "kind": "user",
    "methods": {},
    "version": 1
  }
}